:020000040800F2
:10000000D87C002021A8010895EC0008E102000836
:100010009BEC0008A1EC0008A7EC00080000000021
:10002000000000000000000000000000D19800085F
:10003000ADEC000800000000219B0008BBEC0008AC
:1000400071A8010871A8010871A8010871A8010828
:1000500071A8010871A80108D7EC0008E5EC0008B8
:10006000F3EC000801ED00080FED00089DED00081D
:10007000CDED0008FDED00082DEE00085DEE000856
:100080008DEE000871A8010871A8010871A8010887
:1000900071A8010871A8010871A801081DED0008E8
:1000A00071A8010871A8010871A8010871A80108C8
:1000B00071A8010871A8010871A8010871A80108B8
:1000C00071A8010871A8010871A8010871A80108A8
:1000D00071A801081DEF000871A8010871A80108A6
:1000E00047ED000871A801080000000071A8010890
:1000F00071A8010871A8010871A8010871A8010878
:1001000071A801087FED000871A8010871A8010815
:1001100059EF000871A8010871A801080DF0000846
:10012000BDEE0008EDEE000871A8010871A80108F5
:1001300071A8010871A8010871A8010871A8010837
:1001400000000000000000000000000000000000AF
:1001500071A8010871A8010871A8010895EF0008AD
:1001600071A8010871A8010871A8010871A8010807
:1001700071A8010871A8010871A801080000000019
:1001800071A8010871A80108D1EF000871A8010841
:1001900071A8010871A8010871A8010871A80108D7
:1001A00071A8010871A8010871A8010871A80108C7
:1001B00071A8010871A8010871A8010871A80108B7
:1001C00071A8010871A8010871A8010871A80108A7
:1001D00071A80108C9EC000871A8010871A80108FC
:1001E00071A8010871A8010871A8010871A8010887
:1001F00071A8010871A8010871A8010871A8010877
:1002000071A8010871A8010871A8010871A8010866
:1002100071A8010849F0000831F0000871A8010830
:1002200071A8010871A801088DED00080000000008
:1002300071A8010871A801080000000071A8010858
:1002400071A8010871A8010871A8010871A8010826
:1002500071A8010871A8010871A8010871A8010816
:1002600071A8010871A8010871A8010871A8010806
:1002700071A8010871A8010871A801080000000018
:1002800071A8010871A8010871A801080000000008
:080290000000000071A8010844
:1002A00010B5054C237833B9044B13B10448AFF3B0
:1002B00000800123237010BD140500200000000001
:1002C0001CD8010808B5034B1BB103490348AFF321
:1002D000008008BD00000000180500201CD801089F
:1002E0007046694600F0D2FCFFF7FEFF10F8012BC4
:1002F00011F8013B012A28BF9A42F7D0D01A704763
:10030000034613F8012B002AFBD1181A0138704755
:1003100001F0FF01102A2BDB10F0070F08D010F8B6
:10032000013B013A8B422DD010F0070F42B3F6D1BA
:10033000F0B441EA012141EA014122F007047FF0D3
:1003400000070023F0E80256083C85EA010586EA2A
:10035000010685FA47F5A3FA87F586FA47F6A5FA66
:1003600087F68EB9EED1F0BC01F0FF0102F0070272
:1003700032B110F8013B013A83EA010313B1F8D11D
:100380000020704701387047002D06BF35460338FE
:10039000073815F0010F07D1013015F4807F02BF37
:1003A000013015F4C03F0130F0BC0138704700BF88
:1003B00053B94AB9002908BF00281CBF4FF0FF31CC
:1003C0004FF0FF3000F074B9ADF1080C6DE904CEC8
:1003D00000F006F8DDF804E0DDE9022304B0704720
:1003E0002DE9F047089D04468E46002B4DD18A42E8
:1003F000944669D9B2FA82F252B101FA02F3C2F11B
:10040000200120FA01F10CFA02FC41EA030E9440AB
:100410004FEA1C48210CBEFBF8F61FFA8CF708FBCC
:1004200016E341EA034306FB07F199420AD91CEBA4
:10043000030306F1FF3080F01F81994240F21C81D6
:10044000023E63445B1AA4B2B3FBF8F008FB10331E
:1004500044EA034400FB07F7A7420AD91CEB040453
:1004600000F1FF3380F00A81A74240F20781644423
:10047000023840EA0640E41B00261DB1D4400023A8
:10048000C5E900433146BDE8F0878B4209D9002D0C
:1004900000F0EF800026C5E9000130463146BDE896
:1004A000F087B3FA83F6002E4AD18B4202D3824200
:1004B00000F2F980841A61EB030301209E46002DAF
:1004C000E0D0C5E9004EDDE702B9FFDEB2FA82F204
:1004D000002A40F09280A1EB0C014FEA1C471FFA62
:1004E0008CFE0126200CB1FBF7F307FB131140EA49
:1004F00001410EFB03F0884208D91CEB010103F116
:10050000FF3802D2884200F2CB804346091AA4B2D7
:10051000B1FBF7F007FB101144EA01440EFB00FEAB
:10052000A64508D91CEB040400F1FF3102D2A64510
:1005300000F2BB800846A4EB0E0440EA03409CE7AF
:10054000C6F12007B34022FA07FC4CEA030C20FA5C
:1005500007F401FA06F31C43F9404FEA1C4900FA7C
:1005600006F3B1FBF9F8200C1FFA8CFE09FB1811F9
:1005700040EA014108FB0EF0884202FA06F20BD96C
:100580001CEB010108F1FF3A80F08880884240F2BC
:100590008580A8F102086144091AA4B2B1FBF9F000
:1005A00009FB101144EA014100FB0EFE8E4508D9FB
:1005B0001CEB010100F1FF346CD28E456AD9023880
:1005C000614440EA0840A0FB0294A1EB0E01A14265
:1005D000C846A64656D353D05DB1B3EB080261EBD3
:1005E0000E0101FA07F722FA06F3F1401F43C5E9AD
:1005F000007100263146BDE8F087C2F12003D840E3
:100600000CFA02FC21FA03F3914001434FEA1C4724
:100610001FFA8CFEB3FBF7F007FB10360B0C43EA16
:10062000064300FB0EF69E4204FA02F408D91CEBC6
:10063000030300F1FF382FD29E422DD902386344C4
:100640009B1B89B2B3FBF7F607FB163341EA034164
:1006500006FB0EF38B4208D91CEB010106F1FF38B3
:1006600016D28B4214D9023E6144C91A46EA0046AA
:1006700038E72E46284605E70646E3E61846F8E63C
:100680004B45A9D2B9EB020864EB0C0E0138A3E785
:100690004646EAE7204694E74046D1E7D0467BE766
:1006A000023B614432E7304609E76444023842E7DE
:1006B000704700BF80B582B000AF0023FB710BF024
:1006C000C3F90346FB7100BFFB7983F00103DBB282
:1006D000002BF9D100F006F8002318460837BD4674
:1006E00080BD0000B0B588B000AF342200211448AE
:1006F0001AF00EF9124B134A1A63114B01221A70A9
:10070000114B1C68114B93E80700A047104B1B6866
:100710009847104B3C1D1D460FCD0FC495E80700B0
:1007200084E807003B1D0021184608F0F0FC034652
:10073000094A136008F0D4FC00BF2037BD46B0BDA5
:10074000600500200C00002004000020940200201E
:100750004800002044D801083005002080B586B04C
:1007600002AF78600023FB602D4B5B6B2D4A136159
:100770002B4B1B6B2B4AD3602A4800F00FF92A4BF6
:100780002A4A2B49274800F03DF92A4B1B78194685
:10079000284B5B781A46274B9B78019300920B46B7
:1007A000254A23491F4800F02DF9244B244A2049AB
:1007B0001C4800F027F9234B1B6823489847234B1C
:1007C0001B6823489847234B1B681E4A92681046B3
:1007D0009847134B1B6B4FF40060984703461E4A23
:1007E00013601D4B1B68002B05D11C4B144A10498C
:1007F0000C4800F007F90A4B5B689847F860184B03
:100800001B68002B04D1FB6803F6B833144A13604D
:10081000F86800F027F8192008F0C5FCEBE700BFE6
:10082000480000203003002060D8010870D801087B
:1008300074D80108C0E2010884D80108A0D80108D2
:10084000A8D801089C0000203405002030010020B9
:1008500060050020B00000205C050020B4D801082D
:100860000000002080B584B000AF78600023FB81D9
:1008700000237B73274B1B687A689A4219D3264B57
:10088000264A2749274800F0BDF8274B274A244924
:10089000244800F0B7F8264B9B680A209847254B60
:1008A0005B6825489847224BDB6A984701237B7396
:1008B00023E0204B1B69002B05D01E4B1B691E48F3
:1008C00098470346FB811D4B1B68002B15D0FB8905
:1008D000002B04D07B6803F6B8330E4A1360154B27
:1008E000DB68164A1168FA8913489847144B9B68CD
:1008F000124A1168FA89104898477B7B002B04D074
:100900000B4B9B6B0F4A1046984700BF1037BD46F4
:1009100080BD00BF00000020D4D80108E0D8010845
:1009200074D8010830030020F0D80108FCD8010871
:10093000480000209C000020340500205C050020B9
:10094000B00000200000020880B483B000AF03466E
:10095000FB71FB79002BFCD100BF00BF0C37BD46FB
:100960005DF8047B7047000080B584B000AFF8608C
:10097000B9601346FB80BB68002B09D0FB88002BB5
:1009800006D0054BDB69FA681068FA88B9689847A1
:1009900000BF1037BD4680BDD401002090B583B0A4
:1009A00000AF78607B68DB687A68146890209847AD
:1009B0000346E3607B681B68DB68002B1BD07B6809
:1009C0001B68002B0BD00E4B1B687A681268104610
:1009D0009847034683F00103DBB2002B03D07B680A
:1009E00000221A6008E07B6801221A717B681B688C
:1009F0007A681A6500E000BF0C37BD4690BD00BFA5
:100A0000D40100200CB480B5C4B000AF07F58873E2
:100A1000A3F58673186007F58873A3F588731960CA
:100A20000023A7F80E3107F58873A3F586731B68BA
:100A30001B7983F00103DBB2002B40F0B48007F593
:100A40008873A3F586731B681B69002B28D007F5F4
:100A50008873A3F586731B68DB68002B20D007F52D
:100A60008873A3F586731B689B68002B18D107F564
:100A70008873A3F586731B68DB684FF40070984792
:100A8000024607F58873A3F586731B689A6007F51D
:100A90008873A3F586731B689B68002B00F0858024
:100AA00007F58873A3F586731B689B684FF4007283
:100AB0000021184619F02CFF07F108034FF480724B
:100AC0000021184619F024FF07F58873A3F58873F1
:100AD00007F10802196810461AF097FC07F108039D
:100AE000D7F8181118461AF081FC07F58873A3F59A
:100AF00086731B689B68002B58D007F58873A3F595
:100B000086731B681B68002B50D007F58E73C7F8DF
:100B1000083107F58873A3F586731B68986807F199
:100B20000802D7F808314FF400711AF043FD03466C
:100B3000A7F80E31B7F80E31B3F5007F04D94FF4A2
:100B40000073A7F80E3112E007F58873A3F58673DA
:100B50001B689A68B7F80E311344022217491846E9
:100B600019F0C8FEB7F80E310233A7F80E3107F5B9
:100B70008873A3F586731B689968B7F80E2107F58B
:100B80008873A3F586731868FFF7EEFE07F5887380
:100B9000A3F586731B689B68B7F80E2100211846E1
:100BA00019F0B6FE02E000BF00E000BF07F588774D
:100BB000BD46BDE8804002B0704700BF0CD90108B7
:100BC00090B400AF6B461C4623461846BD4690BC09
:100BD000704790B400AFEFF309831C4623461846D4
:100BE000BD4690BC704790B400AFEFF308831C463D
:100BF00023461846BD4690BC7047000080B584B0BF
:100C000000AFF860B9607A60FB68194A19491A4860
:100C1000FFF7F8FEBB68194A16491748FFF7F2FEBE
:100C20007A68BB681344164A12491348FFF7EAFE74
:100C30007B68144A0F491048FFF7E4FEFB68203335
:100C4000FB60FA68BB689A4205D37A68BB681344B4
:100C5000FA689A4206D90C4A06490748FFF7D2FEBD
:100C6000012300E0002318461037BD4680BD00BFB9
:100C700010D9010824D901083003002034D9010813
:100C800048D901085CD9010870D90108B0B588B00D
:100C900000AF78603960544A54495548FFF7B2FEB6
:100CA0000023FB613B68BB61FFF78AFF03467B6162
:100CB000FFF799FF03463B61FFF78BFF0346FB609D
:100CC0007B6803F00403002B26D04A4A4749484872
:100CD000FFF798FE07F060FF0346FB61FB691846CB
:100CE00007F042FC0346444A40494148FFF78AFE68
:100CF000FB68BB61BC69FB69184607F05DFF0346F2
:100D00001D46FB69184607F07BFF03461A46294635
:100D10002046FFF773FF0CE0384A34493448FFF7A8
:100D200071FEBB69364A1168364A12681846FFF7E9
:100D300065FF3B68344A2D492D48FFF763FE7B6908
:100D4000324A2A492A48FFF75DFEFB68304A2749A4
:100D50002748FFF757FE3B692E4A24492448FFF7EE
:100D600051FEBB691B682C4A20492148FFF74AFE07
:100D7000BB6904331B68294A1C491D48FFF742FE22
:100D8000BB6908331B68264A18491948FFF73AFE21
:100D9000BB690C331B68234A14491548FFF732FE20
:100DA000BB6910331B68204A10491148FFF72AFE1F
:100DB000BB6914331B681D4A0C490D48FFF722FE1E
:100DC000BB6918331B681A4A08490948FFF71AFE1D
:100DD000BB691C331B68174A04490548FFF712FE1C
:100DE000154B5B689847FEE784D9010824D90108B0
:100DF0003003002094D90108A4D90108B8D901080A
:100E0000D85C0020D87C0020C8D90108DCD90108B2
:100E1000F0D9010804DA010818DA010828DA010813
:100E200038DA010848DA010858DA010868DA0108F6
:100E300078DA010888DA01083000002090B585B022
:100E400000AF3B1D83E80700084B5B68002B01D116
:100E5000002306E0054B5C683B1D93E80700A047B4
:100E6000012318461437BD4690BD00BFB0010020D5
:100E700090B585B000AF3C1D84E80700FB70084BBF
:100E8000DB69002B01D1002306E0054BDC69FB7810
:100E90003A1D07CAA047012318461437BD4690BD26
:100EA000B001002080B582B000AF78607B68002B75
:100EB00001D102231CE07B6800225A607B6800227B
:100EC0001A70786800F018F8034683F00103DBB26B
:100ED000002B01D003230BE0786800F059F803469B
:100EE000002B01D0042303E07B6801221A70002349
:100EF00018460837BD4680BD90B587B002AF786010
:100F0000214B1B88BB810023BB737B68002B03D064
:100F10007B68DB68002B01D1002330E07B68DC6854
:100F20009F2301930323009300230022002101202B
:100F3000A047034683F00103DCB27B681B6907F11D
:100F40000C0210469847034683F00103DBB22343AB
:100F5000DBB2002B01D0002311E03B7B1A047B7B2A
:100F60001B021343BA7B13431A467B685A607B68A3
:100F70005B68064A934201D0002300E00123184633
:100F80001437BD4690BD00BF98DA01081740EF0046
:100F900090B585B002AF78607B68002B03D07B688A
:100FA000DB68002B01D1022354E07B681B7A002B05
:100FB00001D001234EE07B6801221A727B68DC6855
:100FC00066230193002300930023002200210020C8
:100FD000A047034683F00103DBB2002B04D07B68FB
:100FE00000221A72052335E0786800F037F80346CE
:100FF00083F00103DBB2002B04D07B6800221A725D
:10100000062327E07B68DC68992301930023009383
:101010000023002200210020A047034683F00103A3
:10102000DBB2002B04D07B6800221A72052311E08A
:10103000786800F013F8034683F00103DBB2002B5D
:1010400004D07B6800221A72062303E07B6800222A
:101050001A72002318460C37BD4690BD90B587B074
:1010600004AF78607B68002B03D07B689B69002B02
:1010700001D1002317E07B689C69012303930023BF
:1010800002930523019300230093002300220021F3
:101090000120A047034683F00103DBB2002B01D0FF
:1010A000002300E0012318460C37BD4690BD80B5F3
:1010B00082B000AF78607B68002B03D07B68DB696F
:1010C000002B01D1022314E07868FFF761FF03468B
:1010D000002B01D104230CE07B68DB69EB209847EF
:1010E000034683F00103DBB2002B01D0072300E0AD
:1010F000002318460837BD4680BD90B587B004AFC1
:1011000078607B68002B07D07B68DB68002B03D0FE
:101110007B689B69002B01D100232AE07B68DC6897
:1011200006230193002300930023002200210020C6
:10113000A047034683F00103DBB2002B01D000235C
:1011400017E07B689C690223039302230293052323
:101150000193012300930023002200210120A047D6
:10116000034683F00103DBB2002B01D0002300E033
:10117000012318460C37BD4690BD90B585B002AF2F
:10118000786039607B68002B03D07B68DB68002BBC
:1011900001D102233EE07B681B7A002B01D00123A2
:1011A00038E07B6801221A727868FFF7A6FF0346D1
:1011B00083F00103DBB2002B04D07B6800221A729B
:1011C000082327E07B68DC68202301930023009339
:1011D00000233A6801210020A047034683F0010361
:1011E000DBB2002B04D07B6800221A72052311E0C9
:1011F0007868FFF733FF034683F00103DBB2002B6F
:1012000004D07B6800221A72062303E07B68002268
:101210001A72002318460C37BD4690BD90B587B0B2
:1012200004AF78607B68002B03D07B68DB68002B01
:1012300001D102234AE07B681B7A002B01D00123F5
:1012400044E07B6801221A727868FFF756FF034674
:1012500083F00103DBB2002B04D07B6800221A72FA
:10126000082333E07B68DC68C723019300230093E5
:101270000023002200210020A047034683F0010341
:10128000DBB2002B04D07B6800221A7205231DE01C
:101290007B689C6901230393002302930523019338
:1012A000002300930023002200210120A0470346D1
:1012B00083F00103DBB2002B04D07B6800221A729A
:1012C000062303E07B6800221A72002318460C37BD
:1012D000BD4690BD90B589B002AFF860B9607A6044
:1012E0007B8000237B61FB68002B12D0FB68DB68EE
:1012F000002B0ED0FB685B69002B0AD07B68002BAB
:1013000007D07B88002B04D0BB68C3F30B03002BF2
:1013100001D0022362E0FB681B7A002B01D001237D
:101320005CE0FB6801221A720023FB744FE0F8684E
:10133000FFF7E3FE034683F00103DBB2002B04D08A
:10134000FB6800221A72082348E0FB68DC6832233D
:1013500001934FF4807300930023BA6801210420A5
:10136000A047034683F00103DBB2002B04D0FB68E7
:1013700000221A72052331E0FB685B6979687A699B
:101380000A4410469847034683F00103DBB2002B62
:1013900004D0FB6800221A7209231FE0F868FFF7E7
:1013A0005DFE034683F00103DBB2002B04D0FB6833
:1013B00000221A72062311E0BB6803F58073BB603C
:1013C0007B6903F580737B61FB7C0133FB74FB7CE1
:1013D0000F2BACD9FB6800221A72002318461C3769
:1013E000BD4690BD90B587B002AFF860B9607A6035
:1013F0007B80FB68002B0DD0FB68DB68002B09D0DD
:10140000FB681B69002B05D07B68002B02D07B8812
:10141000002B01D102233CE0FB681B7A002B01D09A
:10142000012336E0FB68DC68EB2301937B880093A3
:101430000623BA6804210420A047034683F0010371
:10144000DBB2002B04D0FB6800221A72052320E0D7
:10145000FB681B6978689847034683F00103DBB299
:10146000002B04D0FB6800221A720A2311E0F868EE
:10147000FFF7F4FD034683F00103DBB2002B04D039
:10148000FB6800221A72062303E0FB6800221A722E
:10149000002318461437BD4690BD0000B0B58AB091
:1014A00000AF7860396007F10C031C220021184658
:1014B00019F02EFA3B68002B22D03B681B78002BDA
:1014C0001ED000233B614FF480733B844FF4803384
:1014D000BB614FF48053FB613B685B68FB603B681A
:1014E0005B68104A93420DD14FF400037B614FF4C7
:1014F0000043FB8480237B844FF40063BB8402E0C1
:1015000000BF00E000BF7B681D4607F10C040FCC54
:101510000FC594E8070085E8070078682837BD46BE
:10152000B0BD00BF1740EF0080B483B000AF78605B
:1015300039607B68002B07D07B681B78002B03D0B9
:101540003A68054B134000E0002318460C37BD46AF
:101550005DF8047B704700BF00F0FFFF80B582B0EC
:1015600000AF0346FB71FB79022B01D9002303E096
:1015700000BF00F005F8012318460837BD4680BDBE
:1015800080B400AF00231846BD465DF8047B704769
:1015900080B483B000AF786000BF0C37BD465DF803
:1015A000047B704780B400AF62B600BFBD465DF8F3
:1015B000047B704780B400AF72B600BFBD465DF8D3
:1015C000047B704780B582B000AF00233B600123ED
:1015D000FB713C220021324819F09AF9304B00226D
:1015E0001A77342019F06EF903461A462C4B9A6389
:1015F0002B4B9B6B002B4ED0294B012283F83120C3
:10160000274B002283F83220254B012283F8332018
:10161000234B012283F83420214B022283F835200A
:1016200020480CF08DFF0346002B34D01C4B0122C8
:101630001A771B4B4FF040421A62194B1B6A3B60F2
:10164000174B0022DA62164B00229A621EE0144BFE
:101650009A6A3B6892B21A803B681B889AB2104B18
:101660009B6A9BB29A4209D00023FB710C4B00226B
:101670001A770B4BDB6A0133094AD3623B680022BD
:101680001A80074B9B6A0133054A9362044B9B6A9D
:10169000B3F5001FDBD3FB7918460837BD4680BD84
:1016A00094050020C405002080B58CB000AF7860A0
:1016B0000023FB620023BB6207F10C031C22002104
:1016C000184619F025F907F10C03184608F042F8FE
:1016D0003B6ABB62FB68002B28D0786807F050FE9D
:1016E000F86207F10C03184608F034F8FB68124A58
:1016F0001360BB69104A9360FB6A002B0CD13A6AF5
:10170000BB6AD31A012B07D00023FB620A4B1B696B
:101710000133094A136109E07A680021F86A19F077
:10172000F7F8054BDB680133034AD360FB6A1846C0
:101730003037BD4680BD00BF9405002080B58AB01B
:1017400000AF786000237B6207F108031C220021B0
:10175000184619F0DDF87B68002B26D007F1080346
:10176000184607F0F7FF3B6A7B62786807F0D4FE03
:1017700007F10803184607F0EDFFBB680D4A136038
:101780007B690C4A93603A6A7B6AD31A012B07D1B2
:10179000084B5B690133074A536100237B6004E017
:1017A000044B9B690133034A936100BF2837BD4650
:1017B00080BD00BF9405002080B586B000AF786082
:1017C00000237B61124A7B6893421CD37B6803F041
:1017D0007F43104A934216D17B6804331B687B61B8
:1017E0007B681B68FB60FB6883F3088800BF0A4BBB
:1017F0009B6C984700233B613B6983F3148800BFCF
:101800007B69984700E000BF1837BD4680BD00BF28
:1018100000000208000000084800002080B582B0E7
:1018200000AF7860786807F0BEFC00BF0837BD469F
:1018300080BD80B582B000AF786039607B68002BD6
:1018400006D03B68002B03D03968786807F082FD2A
:1018500000BF0837BD4680BD90B587B000AF786047
:101860000123FB757B68002B01D10023DCE07B6842
:1018700000221A704FF4006200216D4819F048F8F8
:101880004FF4006200216B4819F042F84FF40062F7
:101890000021694819F03CF84FF4006200216748C4
:1018A00019F036F8664B1B6B7820984702467B6828
:1018B0005A607B685B68002B01D10023B4E0604B69
:1018C0001B6B7A685468902098470346E3607B68F6
:1018D0005B68DB68002B07D1594B5B6B7A685268F9
:1018E0001046984700239FE0554B1B6B7A6854685D
:1018F000782098470346E361514B1B6B7A68546824
:1019000078209847034663617B685B684D4A9A601C
:101910007B685B684FF4E1221A607B685B68002299
:101920001A717B685B68484A203307CA83E807005E
:101930007B685B68454A2C3307CA83E807007B68ED
:101940005B6801221A747B685B6800225A747B68AA
:101950005B6801221A767B685B6801225A767B6895
:101960005B684FF40062A3F844207B685B68314AEF
:101970001A647B685B682E4A9A647B685B684FF4E4
:101980000062A3F84C207B685B687A681A65304B6C
:101990001B687A6852681046984703461A46FB7DD2
:1019A0001340002B14BF01230023FB750023FB60B1
:1019B00000233B6107F10C030121184607F007FCE7
:1019C00002467B681A617B681B69002B05D0FB7D92
:1019D00083F00103DBB2002B14D01D4B5B687A68E7
:1019E000526810469847164B5B6B7A685268D2680B
:1019F00010469847124B5B6B7A68526810469847BE
:101A0000002311E07B685B68124A9A637B685B681D
:101A1000114ADA637B68084A9A617B68074A1A624E
:101A20007B6801221A70012318461C37BD4690BD01
:101A30000080072400880724D0050020D00D002056
:101A40004800002000100140A0020020AC0200204D
:101A5000D4010020ED1A0008311B000880B584B0C5
:101A600000AF78600123FB737B68002B06D07B6896
:101A70001B7883F00103DBB2002B01D000232BE0A5
:101A8000174B5B687A685268104698470346FB73A9
:101A9000134B5B68134A12681046984703461A4670
:101AA000FB7B1340002B14BF01230023FB730E4B61
:101AB0005B6B0C4A1268D268104698470A4B5B6B06
:101AC0007A685268D26810469847074B5B6B7A6811
:101AD000526810469847FB7B18461037BD4680BDBC
:101AE000D4010020300300204800002080B586B0DB
:101AF00000AFF860B9601346FB80FB687B617B69CF
:101B0000002B10D07B691B7883F00103DBB2002B24
:101B100009D17B691B69002B06D07B691B691846BC
:101B200007F0E2FB00E000BF1837BD4680BD0000B3
:101B300080B586B000AFF860B9601346FB80FB68E3
:101B40007B617B69002B48D07B691B7883F00103A4
:101B5000DBB2002B41D1BB68002B3ED0FB88002BB1
:101B60003BD07B699B685A1C7B699A607B69DA6809
:101B7000FB881A447B69DA607B691B7D83F0010373
:101B8000DBB2002B11D07B699B697A69928B13447D
:101B9000FA88B968184618F0ADFE7B699A8BFB8805
:101BA00013449AB27B699A8318E07B691B6A7A694D
:101BB000928C1344FA88B968184618F09BFE7B692A
:101BC0009A8CFB8813449AB27B699A84054B1B78E4
:101BD0000133DAB2034B1A7000E000BF1837BD467C
:101BE00080BD00BFD015002080B485B000AF786004
:101BF0000023FB817B6801221A757B689B8BFB812C
:101C00007B6800221A757B689B8C002B04D07B6854
:101C10009A8CFB891344FB81FB8918461437BD4617
:101C20005DF8047B7047000080B586B000AFF860B7
:101C3000B9601346FB800123FB75FB68002B0CD0B9
:101C4000FB681B7883F00103DBB2002B05D1BB6876
:101C5000002B02D0FB88002B01D100232AE0FB6877
:101C60001B690021184607F0F1FA144BDB69FA688A
:101C70005068FA88B968984703461A46FB7D1340B6
:101C8000002B14BF01230023FB75FB681B69642133
:101C9000184607F0DBFA0346002B0CBF0123002394
:101CA000DBB21A46FB7D1340002B14BF0123002337
:101CB000FB75FB7D18461837BD4680BDD40100205A
:101CC00080B586B000AFF860B9601346FB80002392
:101CD000FB82FB88BB82FB68002B0CD0FB681B7867
:101CE00083F00103DBB2002B05D1BB68002B02D0CF
:101CF000FB88002B01D100234DE0FB689B8BFA8809
:101D00009A4202D3FB689B8BBB82FB6801221A7547
:101D1000BB8AFB82FB689B69BA8A1946B86818F0CF
:101D2000E9FDFB689869FB689B8B1A46002118F057
:101D3000EFFDFB6800229A83FB6800221A75FA887F
:101D4000BB8AD31AFB80FB88002B23D0FB689B8CBB
:101D5000002B1FD0FB88BB82FB689B8CBA8A9A42FF
:101D600002D3FB689B8CBB82FA8ABB8A1344FB823A
:101D7000FB681B6ABA8A1946B86818F0BBFDFB6895
:101D8000186AFB689B8C1A46002118F0C1FDFB689D
:101D900000229A84FB8A18461837BD4680BD000091
:101DA0002DE9F043A9B010AF78650023A7F85A30A9
:101DB0000023FB6586220021654818F0A9FD452215
:101DC0000021644818F0A4FD4FF486720021624897
:101DD00018F09EFD5F4BFB655F4B00221A775E4B50
:101DE00000221A715C4B00225A775C4B1B6B4FF43C
:101DF000801098470346584A5361574B5B69002B44
:101E000001D100239FE0564BDB684FF40062554937
:101E100055489847034683F00103DBB2002B01D0FD
:101E2000002390E0514B1B689847034683F0010361
:101E3000DBB2002B01D0002385E04D4B5B68FC6DCD
:101E400007F108004B4A00219847204607F1080394
:101E50004522194618F04EFDFB6D1B68002B07D17B
:101E6000434BDC6886233A4A42490020A04763E09E
:101E70003F4B5B697B60FB6D07F15A020E92344A5F
:101E80000D92D3F805209146D3F809209046D3F857
:101E90000D20964603F111046E4604F1300C3546D0
:101EA0002346186859689A68DB680FC510341036E5
:101EB0006445F4D1334622461068186049464246CC
:101EC000734600207C68A0470346002B03D1B7F877
:101ED0005A30862B07D0204B002283F83D201E4B22
:101EE000002283F83C201C4B93F83D301A461A4BD5
:101EF00093F83C301340002B1ED0174BD3F83E30E4
:101F0000184600F039F80346002B15D0124B00227A
:101F100083F83C20104B002283F83D200E4B00221A
:101F2000DA870022A3F84020114B1C69FB6D196B66
:101F30008623074A0020A047074B01221A77064A4A
:101F40007B6D1360012318466437BD46BDE8F083FE
:101F50001016002096160020D415002048000020FE
:101F6000C0000020C8DA0108FC150020FC01002098
:101F700030010020D8DA010880B584B000AF786065
:101F8000294BFB600023BB60284B1B7F83F00103C0
:101F9000DBB2002B0BD1254B5B69002B07D0244B08
:101FA0009B68002B03D0224B1B69002B01D100231F
:101FB00036E0204B5B681D4A52694FF48011104691
:101FC0009847034683F00103DBB2002B1AD1184B6C
:101FD0009B681949144A8A1A1146F86898470346BB
:101FE00083F00103DBB2002B0CD1114B1B690F4AAC
:101FF00051697A68F8689847034683F00103DBB2B9
:10200000002B01D000230BE0084B5B694FF48012DA
:102010000021184618F07CFC064B1B6898470346C5
:1020200018461037BD4680BD00000208D4150020B8
:10203000FC0100204C0100200000100890B587B082
:1020400002AF78600023BB810023FB723F4B1B7FF4
:1020500083F00103DBB2002B74D13C4B5B7F002B80
:1020600070D13B4B1C68394B9A6B009228330FCBD5
:10207000A0470346BB81354B93F8243083F001031E
:10208000DBB2002B5FD0BB89092B5CD92F4B01221F
:1020900083F824202E4B9C6907F10B0201230021B9
:1020A0002C48A047034683F00103DBB2002B37D155
:1020B0006622FB7A9A4207D0254B1B6A07F10B0177
:1020C000012224489847E1E7214B1C681F4B9A6B7B
:1020D000009228330FCBA0470346BB81BB89092B55
:1020E00020D90023FB7315E0184B00225A77184BB8
:1020F0001B6A07F10B01012216489847FB7B164A21
:10210000D25CFB7A9A4209D1104B01225A77FB7BB1
:102110000133FB73FB7B092BE6D9B7E700BFB5E7BB
:1021200000BF00E000BF094B5B7F012B05D1074BCF
:102130001B681822094978689847044B002283F8E5
:10214000242000E000BF1437BD4690BDD415002008
:10215000C0000020FC15002004DB0108E8DA0108BB
:1021600090B58BB000AFF860B9603B601346FB8060
:1021700000233B620023FB6100237B83394B7B619F
:10218000394B00221A8397F83C30002B62D03B6811
:10219000002B5FD03B683B62386AFEF7B1F803461C
:1021A0009BB201337B837B8B3A681344FB61002332
:1021B000FB840DE0FB8CFA6913441B78202B04D1BF
:1021C000FB8CFA69134400221A70FB8C0133FB84E8
:1021D000FC8CF869FEF794F803469C42EAD3234B43
:1021E0001C6B386AFEF78CF8034601331846A0478B
:1021F00003461D4A93601C4B9B68002B27D01A4B4B
:102200009C68386AFEF77CF8034601331A46396A3F
:10221000204618F06FFBF86918F02BFB03461A46AE
:10222000114BDA60104B002283F83D200E4B002248
:1022300083F83C200C4BDB680B4AC2F83E300C4B59
:102240001C697B69196B86230A4A0020A047064B4C
:1022500000221A61084B5B690848984700BF2C3779
:10226000BD4690BD96160020D415002048000020E1
:102270003001002010160020C0000020FC150020B6
:1022800080B584B000AFF860B9603B601346FB8056
:102290003B7F002B1AD0144B1B8B01339AB2124B8D
:1022A0001A83114B5B69002B09D00F4B5A690E4BF7
:1022B0001B6913443A8B3968184618F01BFB0A4B0C
:1022C0001A693B8B1344084A136105E0064B5B8B8C
:1022D00001339AB2044B5A83044B5B690448984714
:1022E00000BF1037BD4680BDD4150020C0000020BF
:1022F000FC15002080B584B000AFF860B9601346CB
:10230000FB80044B5B690448984700BF1037BD460B
:1023100080BD00BFC0000020FC15002090B585B036
:1023200000AF78600B46FB70484B0022C3F80821D1
:10233000464B00221A83464BFB60464B5B6946487E
:102340009847424B00225A7797F90330012B33D13B
:102350003E4B1B68002B03D0404B9B6832209847B4
:102360003A4BDB68002B27D0384B1B69002B23D05E
:10237000364B1A69354BDB689A421DD3334B012229
:1023800083F83D20314B012283F83C20344B1C69FB
:10239000FB68196B8623334A0020A047324B1B6829
:1023A0009847314B9B68294A52692849C9681046A9
:1023B00098472A4B1B6D984797F9033013F1030F89
:1023C00040D1264B9B6832209847204B1B680E2239
:1023D0002649786898471D4B9C681C4B9B6818469B
:1023E000FDF78EFF03461A460021204618F090FAAA
:1023F000164B5B69154A12690021184618F088FAD5
:10240000124B00221A61114B0022DA600F4B00229E
:1024100083F83D200D4B002283F83C200B4B00221B
:10242000DA870022A3F840200D4B1C69FB68196B6A
:1024300086230C4A0020A047084B5B6B034A926836
:102440001046984700BF1437BD4690BDD4150020F4
:1024500096160020C0000020FC1500204800002037
:1024600030010020101600204C01002010DB010874
:10247000B0B58EB006AFF860B9601346FB8000239C
:10248000FB610023BB820023BB61FB88002B03D0D0
:10249000424B5B689847B861414B5B7F012B11D081
:1024A0003F4B1B68002B0BD0BB68002B08D0FB8870
:1024B000002B05D03A4B1B68FA88B968F868984732
:1024C000002367E0364B1B7F83F00103DBB2002B58
:1024D00003D1334B1B68002B01D100235AE0304B52
:1024E000D3F80831002B18D12E4B1C682B4B1A6BDC
:1024F0002A4B596B2A4B1B682B4804902B4803909E
:102500002B4802902B48019000930B460021F8685D
:10251000A0470346224AC2F80831274B1C68204BCB
:102520009A6B009228330FCBA0470346BB82BB8A2D
:10253000002B18D0194B1B6BBA8A10469847F861CC
:102540000023FB820BE01C4B9C69FB8AFA691A444E
:10255000F98A01231948A047FB8A0133FB82FA8AD2
:10256000BB8A9A42EFD30F4B5C680D4BD3F80851EE
:102570000A4B5B6898470246BB8A0093FB69B969BE
:102580002846A047FB69002B03D0044B5B6BF8691E
:102590009847012318462037BD46B0BD48000020AB
:1025A000D4150020EC000020812200081D23000823
:1025B000F522000861210008C0000020FC15002061
:1025C00080B584B000AFF860B9601346FB80134B50
:1025D0001B7F83F00103DBB2002B1BD10F4B5B7F12
:1025E000012B17D8BB68002B14D00D4BDB69FA8880
:1025F000B9680C489847FB881A46B968F868FFF72D
:1026000037FFF868FFF71AFD044B1B6A0133034AD2
:10261000136200E000BF1037BD4680BDD415002016
:10262000C0000020FC15002080B483B000AF7860AB
:10263000044A7B68136000BF0C37BD465DF8047B1D
:10264000704700BFD4150020B0B592B000AF03466C
:10265000B9607A60FB7300237B6400233B644FF412
:102660008063FB87554B1B7F83F00103DBB2002B9C
:1026700009D1524BD3F80831002B04D14F4BD3F87A
:102680003E30002B01D1002393E04D4B07F11404A1
:102690001D460FCD0FC40FCD0FC495E8030084E88D
:1026A0000300002387F83D3023E07B68002B16D021
:1026B00097F83D309B0048333B4453F8344C97F82F
:1026C0003D309B0048333B4453F8343C1846FDF7FB
:1026D00017FE03469AB27B682146B8689847394B83
:1026E0009B684FF47A70984797F83D30013387F82C
:1026F0003D3097F83D30092BD7D9324B9B684FF4CA
:102700007A7098472D4BD3F83E303B642B4B5B6976
:102710007B64FB7B022B06D0022B23DC002B23D017
:10272000012B16D01EE0254B5B693A6C0021184640
:1027300018F0EEF8244B5B68204A5269396C104659
:102740009847034683F00103DBB2002B0ED0002331
:102750002FE01A4B5B693A6C0021184618F0D8F844
:10276000002326E0002324E000BF1EE000BF1CE0A1
:102770003B6CB3F5806F04D23B6CFB8700233B645A
:1027800003E03B6CA3F580633B647B68002B04D0C3
:10279000FA8F7B68796CB8689847FB8F7A6C134422
:1027A0007B64084B9B68322098473B6C002BDFD141
:1027B000012318464837BD46B0BD00BFD4150020E0
:1027C00020DB0108480000204C01002080B584B0C7
:1027D00000AFF860B9607A607B80FB68002B02D0A4
:1027E0007B88002B01D1002323E0FB68BA681A60C4
:1027F000FB6800229A81FB6800225A81FB68002254
:10280000DA80FB687A889A80FB687A681A61FB68CC
:102810001869FB689B881A46002118F079F8FB6854
:102820001B69002B01D1002303E0FB6803221A720D
:10283000012318461037BD4680BD000080B584B026
:1028400000AFF860B9601346FB80FB68002B02D034
:10285000FB88002B01D100232BE0FB68BA681A60CB
:10286000FB6800229A81FB6800225A81FB680022E3
:10287000DA80FB6805221A72104B1B6BFA8810462F
:1028800098470246FB681A61FB681869FB689B88D9
:102890001A46002118F03CF8FB681B69002B01D197
:1028A000002306E0FB68FA889A80FB6803221A720C
:1028B000012318461037BD4680BD00BF48000020E8
:1028C00080B582B000AF78607B68002B07D07B6852
:1028D0001B69002B03D07B689B88002B01D1002350
:1028E00014E07B6800229A817B6800225A817B6811
:1028F0000022DA807B6803221A727B6818697B6881
:102900009B881A46002118F003F80123184608375F
:10291000BD4680BD80B483B000AF78607B68002B7B
:1029200003D07B689B88002B01D105232CE07B68BA
:102930005A897B689B899A4208D17B68DB88002B87
:1029400004D17B6803221A7203231DE07B689B89F4
:1029500001337A68928893FBF2F101FB02F29B1A31
:102960007A685289934205D07B68DA887B689B88B5
:102970009A4204D17B6804221A72042304E07B6823
:1029800000221A727B681B7A18460C37BD465DF828
:10299000047B704780B586B002AF78603960002351
:1029A000BB8100237B8100233B817B68002B14D0FB
:1029B0003B68002B11D07B689B88002B0DD03B68B7
:1029C0009B88002B09D07B68DB88002B05D03B68F7
:1029D0009A883B68DB889A4201D1002369E03B6812
:1029E0001A6900920FCB00F031F90346BB817B6876
:1029F0001A6900920FCB00F090F903467B81BA89E7
:102A00007B89934228BF13463B810023FB814BE027
:102A10003B689B893A689288B3FBF2F101FB02F2B2
:102A20009B1A9AB23B689A817B685B897A68928824
:102A3000B3FBF2F101FB02F29B1A9AB27B685A8156
:102A40007B681B697A6852891A443B681B6939683C
:102A500089890B4412781A707B681B697A685289DD
:102A6000134400221A707B685B8901339AB27B6839
:102A70005A817B68DB88013B9AB27B68DA803B68CD
:102A80009B8901339AB23B689A813B68DB880133AA
:102A90009AB23B68DA803868FFF73CFF7868FFF746
:102AA00039FFFB890133FB81FA893B899A42AFD315
:102AB000012318461037BD4680BD80B586B000AFF3
:102AC000F860B9601346FB80FB68002B06D0FB68FA
:102AD0009B88002B02D0BB68002B01D1052349E065
:102AE000FB88002B01D1002344E0FB681B7A002BFC
:102AF00003D0FB681B7A032B3AD1FA88FB689B88CA
:102B00001946FB68DB88CB1A9A422FDC0023FB8234
:102B100027E0FB689B89FA689288B3FBF2F101FB1E
:102B200002F29B1A9AB2FB689A81FB8ABA681A442D
:102B3000FB681B69F96889890B4412781A70FB6875
:102B40009B8901339AB2FB689A81FB68DB88013369
:102B50009AB2FB68DA80F868FFF7DCFEFB8A013383
:102B6000FB82FA8AFB889A42D3D301E0012301E079
:102B7000FB681B7A18461837BD4680BD80B586B005
:102B800000AFF860B9601346FB80FB68002B09D0EA
:102B9000FB689B88002B05D0BB68002B02D0FB880C
:102BA000002B01D105234DE0FB881A460021B868AF
:102BB00017F0AEFEFB681B7A002B03D0FB681B7A74
:102BC000042B3DD1FB68DB88FA889A4236D8002373
:102BD000FB822EE0FB685B89FA689288B3FBF2F116
:102BE00001FB02F29B1A9AB2FB685A81FB681B69CF
:102BF000FA6852891A44FB8AB9680B4412781A7031
:102C0000FB681B69FA685289134400221A70FB683A
:102C10005B8901339AB2FB685A81FB68DB88013B10
:102C20009AB2FB68DA80F868FFF774FEFB8A01331A
:102C3000FB82FA8AFB889A42CCD301E0022301E0AE
:102C4000FB681B7A18461837BD4680BD84B090B427
:102C500000AF07F1080484E80F00BA89FB89D31A92
:102C60009BB21846BD4690BC04B0704780B487B094
:102C700000AFF8607A601A460B467B8113463B81B1
:102C8000FB68002B12D0FB689B88002B0ED03B8981
:102C9000002B0BD07B68002B08D0FB68DB887A897F
:102CA0009A4203D2FB68DB88002B01D1002321E08C
:102CB0000023FB7518E0FB681969FB685B891A46FD
:102CC0007B891A44FB7D1344FA68928893FBF2F0E7
:102CD00000FB02F29B1ACA18FB7D79680B4412783C
:102CE0001A70FB7D0133FB75FB7D9BB23A899A42DA
:102CF000E1D8012318461C37BD465DF8047B7047B8
:102D000084B090B400AF07F1080484E80F003B7C66
:102D10001846BD4690BC04B0704784B090B400AF74
:102D200007F1080484E80F00BB89002B02D03B7C2C
:102D3000032B01D1002300E0FB891846BD4690BC5F
:102D400004B0704784B090B400AF07F1080484E881
:102D50000F00BB891846BD4690BC04B07047000008
:102D600080B58AB004AFF860B9607A600023FB8256
:102D70000023BB82FB68002B05D0BB68002B02D070
:102D80007B68002B02D14FF0FF33B3E0FB680022D9
:102D90009A80BB681B78012B03D0BB681B78022B81
:102DA0000DD1BB681B78012B01D1802201E04FF4CB
:102DB0008062FB689A807B68022B0CD82BE0BB6892
:102DC0001B78042B04D1FB6801229A80042391E034
:102DD0004FF0FF338EE0BB6801331B781A46BB68A7
:102DE00002331B781344FF2B15D072B600BFBB68AB
:102DF00001331B781A46BB6802331B7813440093D7
:102E00007B683E4A3E493F48FDF7FCFD62B600BF85
:102E10004FF0FF336EE0FB689B8805331A467B68F2
:102E2000934225D2FB685B69002B1ED0FB681A69B0
:102E3000FB685B69D31AB3F5FA7F16D372B600BF8D
:102E4000FB681969FB685B69FA68928802927A6884
:102E5000019200930B462C4A29492A48FDF7D2FDDE
:102E600062B600BF6FF0040344E06FF0030341E07B
:102E7000FB689B88002B3BD0BB68DA1CFB689B88F7
:102E80001946104600F004FF0346BB827B68023BF4
:102E9000BA6813441B789BB21B029AB27B68013B51
:102EA000B9680B441B789BB21344FB82BA8AFB8A35
:102EB0009A420DD1BB6801331B781A46BB680233B6
:102EC0001B781344FF2B03D1BB681B785BB211E066
:102ED00072B600BFFA8ABB8A009313460B4A0849B0
:102EE0000848FDF78FFD62B600BF6FF0010301E0F7
:102EF0004FF0FF3318461837BD4680BD48DB010848
:102F000080DB0108300300208CDB0108E4DB0108D2
:102F100080B485B000AF786039600023FB73002374
:102F2000BB6009E07A68BB6813441A78FB7B1343E3
:102F3000FB73BB680133BB60BA683B689A42F1D34C
:102F4000FB7B002B0CBF01230023DBB21846143798
:102F5000BD465DF8047B704780B586B000AFF86071
:102F60007A603B600B46FB7200237B617B68002B21
:102F700002D03B68002B01D100234DE07B68442048
:102F8000984778617B69002B04D13B687869984742
:102F9000002341E044220021786917F0B9FC7B69E5
:102FA000FA7A1A707B69FA689A607B697A689A6221
:102FB0007B693A68DA627B693A6A1A637B691B78D3
:102FC000012B0FD17B6840F20540984702467B6990
:102FD0001A627B691B6A002B1DD13B687869984790
:102FE000002319E07B691B78002B14D17B697A6A76
:102FF0005A637B69FA6A1A647B693A6B9A637B69E4
:10300000BA6ADA637B6900225A807B6900229A805F
:103010007B6900229A717B6918461837BD4680BDCE
:1030200080B584B000AF78607B68FB600023BB6034
:10303000FB68002B0FD0FB68DB6A002B0BD0FB6812
:10304000DB6ABB6044220021F86817F061FCBB68B2
:10305000F868984700E000BF1037BD4680BD80B5D6
:1030600084B000AF78600B46FB70FB78FB737B6825
:10307000002B10D07B681B6B002B0CD07B689B68EF
:10308000002B08D07B681B6B7A68906807F10F01F2
:103090000122984700E000BF1037BD4680BD000008
:1030A000B0B586B002AFF860B9607A607A68B96886
:1030B000F868FFF755FE03460533092B00F28480BC
:1030C00001A252F823F000BF93310008D13100086B
:1030D000C931000893310008C9310008C93100081E
:1030E000F1300008F1300008C93100088B310008C8
:1030F0000621F868FFF7B3FFBB68DA1CFB689B8802
:1031000019461046FFF704FF034683F00103DBB2C4
:10311000002B5FD04321F868FFF7A1FFFB689B8875
:10312000002B23D0FB685B6B002B11D0FB685C6B22
:10313000FB689868FB689B8805339AB2BB68D91C0A
:10314000FB689B880125019500930B46B968A04751
:1031500072B600BF7B68224A22492348FDF752FC21
:1031600062B600BFFB6801229A7136E072B600BFFA
:10317000FB689B881D4A1B491B48FDF743FC62B650
:1031800000BFFB6803229A7124E0FB6804229A7155
:1031900023E01521F868FFF762FFFB685B6B002BEB
:1031A0001AD0FB685C6BFB689868FB689B880533EA
:1031B0009AB2BB68D91CFB689B88002501950093D7
:1031C0000B46B968A04707E0FB6803229A7104E048
:1031D00000BF02E000BF00E000BF1037BD46B0BD39
:1031E00004DC010880DB0108300300201CDC01083E
:1031F00090B587B002AFF860B9607A60FB68002BC9
:1032000000F0A1807A68B968F868FFF7A9FD034665
:1032100004331C2B7DD801A252F823F04B33000855
:103220001333000813330008133300081333000866
:10323000913200089132000813330008D732000899
:103240001333000813330008133300081333000846
:103250001333000813330008133300081333000836
:103260001333000813330008133300081333000826
:103270001333000813330008133300081333000816
:10328000133300081333000813330008F932000821
:1032900072B600BF314A32493248FDF7B3FB62B61D
:1032A00000BF0621F868FFF7DAFEFB689B6B002B76
:1032B0004DD0FB689C6BFB689B8805339AB2BB685A
:1032C000D91CFB689B880120019000930B46B968CC
:1032D0000020A0473BE072B600BF234A20492148A6
:1032E000FDF790FB62B600BF1521F868FFF7B7FE47
:1032F000FB6802229A712DE0FB6803229A7172B674
:1033000000BF1A4A16491748FDF77CFB62B600BF9A
:1033100020E01521F868FFF7A2FEFB689B6B002BED
:1033200017D0FB689C6BFB689B8805339AB2BB681F
:10333000D91CFB689B880020019000930B46B9685C
:103340000020A04705E000BF04E000BF02E000BF8E
:1033500000E000BF1437BD4690BD00BF3CDC010853
:1033600080DB01083003002054DC010878DC010810
:1033700080B584B000AFF860B9607A60FB68002B5C
:103380002BD07A68B968F868FFF7EAFC0346042B8B
:103390001FD10621F868FFF762FE4321F868FFF7A6
:1033A0005EFEFB6805229A71FB68DB6B002B06D082
:1033B000FB68DB6BFA689288B9680020984772B6A0
:1033C00000BF084A08490948FDF71CFB62B600BF68
:1033D00004E0FB6803229A7100E000BF1037BD468D
:1033E00080BD00BF98DC010880DB010830030020AD
:1033F00080B584B000AFF860B9607A60FB68002BDC
:1034000007D00621F868FFF72AFEFB6804229A71AC
:1034100000E000BF1037BD4680BD80B582B000AF70
:1034200078607B68002B2CD018217868FFF717FE96
:103430007B689B79032B02D0042B0CD022E07B68A5
:103440001B6C002B07D07B681B6C7A6892686FF04E
:103450000201104698477B681B6C002B06D07B68E6
:103460001B6C7A6892680121104698477B6800229D
:103470005A617B6800221A617B681846FFF7D0FD0D
:1034800000E000BF0837BD4680BD000080B586B0B3
:1034900000AFF860B9607A603B60FB687B617B6974
:1034A000002B57D03B6A002B17D17B699B79002BEF
:1034B0000ED07B695B69002B4ED07B695B697A68B3
:1034C000D31AB3F5FA6F47D37B6903229A7143E0AD
:1034D00043217869FFF7C3FD3EE07B697A681A6192
:1034E000BB68002B02D07B69BA685A617B699B7903
:1034F000052B27D801A252F823F000BF153500088C
:10350000213500082D3500084535000845350008EF
:10351000393500083A6A39687869FFF7C1FD15E066
:103520003A6A39687869FFF763FE0FE03A6A3968EA
:103530007869FFF71DFF09E03A6A39687869FFF793
:1035400057FF03E07B6903229A7100BF7869FFF798
:1035500064FF02E000BF00E000BF1837BD4680BD39
:1035600080B586B000AFF8607A603B600B46FB72B6
:103570000023FB82FB68002B0DD0FB681B78002B1F
:1035800009D0FB681B6A002B05D07B68002B02D09A
:103590003B68002B01D100237DE0FB6800221A83E9
:1035A000FB7A012B02D0022B04D008E0FB688022BA
:1035B0001A8306E0FB684FF480621A8301E000235F
:1035C00069E0FB68186AFB681B8B05331A4600210B
:1035D00017F09EF9FB681B6AFA7A1A70FB681B6A7F
:1035E0000133FA68D27F1A70FB68DA7FFB681B6AC6
:1035F0000233D243D2B21A70FB681B8B1A463B6867
:10360000934209D3FB681B6AD81CFB681B8B1A46C4
:10361000796817F06FF907E0FB681B6A03333A68B3
:103620007968184617F066F9FB681B8B19467868AD
:1036300000F02EFB03469BB2FB8207F11602FB68EB
:103640001B6AF968098B03310B4412781A70FB6806
:103650001A6AFB681B8B04331344FA7D1A70FB68EB
:103660001B8B05339AB2FB681A83FB68DB7F01333F
:10367000DAB2FB68DA77FB681B6B002B0AD0FB68B9
:103680001B6BFA689068FA68116AFA68128B98479F
:10369000012300E0002318461837BD4680BD000016
:1036A00090B58FB000AFF8607A603B600B46FB725C
:1036B0000023FB82FB68002B09D0FB681B6A002BF0
:1036C00005D07B68002B02D03B68002B01D1002382
:1036D00086E0FB6800221A83FB7A012B02D0022BC2
:1036E00004D008E0FB6880221A8306E0FB684FF4F0
:1036F00080621A8301E0002372E007F118032022A0
:103700000021184617F004F9FB681B6A40F20542D5
:103710000021184617F0FCF8FB680022DA77FB68F6
:103720001B6AFA7A1A70FB681B6A0133FA68D27F47
:103730001A70FB68DA7FFB681B6A0233D243D2B28D
:103740001A7007F118003B68274A202117F01AFE6B
:10375000FB681B6A03337968184617F056FEFB684E
:103760001C6A7868FCF7CCFD03460433234407F158
:1037700018021146184617F048FEFB681A6AFB68E3
:103780001B8B1946104600F083FA03469BB2FB825E
:1037900007F11602FB681B6AF968098B03310B44B9
:1037A00012781A70FB681A6AFB681B8B0433134487
:1037B000FA7D1A70FB681B8B05339AB2FB681A837B
:1037C000FB681B6B002B0AD0FB681B6BFA689068C8
:1037D000FA68116AFA68128B9847012300E0002307
:1037E00018463C37BD4690BDACDC010890B587B0AB
:1037F00002AFF860B9607A603B60FB68002B54D080
:103800007B68002B51D03B68002B4ED0FB685B6976
:10381000002B12D0FB685B69BA68D31A44F61F62AA
:1038200093420DD93B6A002B03D097F82430002B2C
:1038300006D1FB6805229A773CE0FB68BA685A61BA
:1038400097F82430013B3A6A13441B78182B28D090
:10385000432B2CD13B687A680221F868FFF720FFE0
:10386000034683F00103DBB2002B03D0FB68052283
:103870009A771FE0FB68BA685A61FB6801229A7761
:10388000FB685B6B002B14D0FB685C6BFB68986873
:103890000123019300230093002300220021A0476D
:1038A00007E0FB6806229A7704E000BF02E000BF51
:1038B00000E000BF1437BD4690BD80B588B000AFB2
:1038C000F860B9607A603B600123FB770023BB613D
:1038D00000237B61FB68002B5DD07B68002B5AD0F6
:1038E0003B68002B57D0FB685B8B002B26D0BB6A54
:1038F000002B03D097F82C30002B0AD1FB685B69B2
:10390000BA68D31AB3F5FA6F47D3FB6805229A77E2
:1039100043E097F82C30013BBA6A13441B78062B1E
:1039200002D0182B04D039E0FB68BA685A6106E06F
:10393000FB6806229A770023FB7700E000BFFB7F3D
:10394000002B2BD0FB685B8B9B021A467B681344D1
:10395000BB61FB689B8B1A46FB685B8BD31A9B028F
:103960007B617B69BA690221F868FFF7F9FDFB68A2
:103970005B8B01339AB2FB685A83FB685A8BFB68F6
:103980009B8B9A420AD1FB6804229A77FB6800223B
:1039900083F8242002E000BF00E000BF2037BD46CE
:1039A00080BD80B586B000AFF860B9607A60FB700A
:1039B0000423FB75FB6893F82430002B2CD07B6824
:1039C000002B07D0FB78012B04D1FB6893F824303F
:1039D000012B0ED9FB685B69002B35D0FB685B6956
:1039E000BA68D31AB3F5FA6F2ED3FB6806229A7120
:1039F0002AE0FB68BA685A617B681B78152B03D0F4
:103A00007B681B78182B0AD1FB6806229A777B68A3
:103A10001B78182B03D118E0FB68BA685A61FB6861
:103A20001B6B002B07D0FB681B6BFA68906807F1D3
:103A3000170101229847FB6893F824300133DAB26A
:103A4000FB6883F8242000E000BF1837BD4680BD26
:103A500080B485B000AFF860B9607A603B60FB6805
:103A6000002B4BD03B68002B48D03B7E002B45D031
:103A70003B7E012B10D13B681B78152B05D0182BF2
:103A80003ED1FB6806229A773BE0FB6800229A77DA
:103A9000FB6800225A6134E03B7E022B23D13B6855
:103AA0001B78062B1FD13B6801331B78432B1AD19F
:103AB000FB6802229A77FB681A69FB685A61FB6807
:103AC00000225A837B689B0A9AB2FB689A837B68C0
:103AD000C3F30903002B14D0FB689B8B01339AB20C
:103AE000FB689A830DE0FB685B69BA68D31AB3F58B
:103AF000FA6F06D3FB6805229A7702E000BF00E068
:103B000000BF1437BD465DF8047B704780B584B0B4
:103B100000AF78601823FB737B689B7F052B02D076
:103B2000062B18D051E07B681B6B002B07D07B68FD
:103B30001B6B7A68906807F10F01012298477B6838
:103B40001B6C002B07D07B681B6C7A6892686FF047
:103B50000601104698477B6800221A617B680022A4
:103B6000DA777B68002283F824207B6800225A6180
:103B70007B6800221A837B6800229A837B6800227C
:103B80005A837B6800229A777B681B6A002B10D0CF
:103B90007B681B6A40F205420021184616F0B8FE09
:103BA0007B68DB6A7A68126A104698477B68002255
:103BB0001A627B681B6C002B06D07B681B6C7A68D2
:103BC000926802211046984700BF00BF1037BD46DB
:103BD00080BD000080B588B002AFF860B9607A603F
:103BE0003B60FB687B617B69002B4CD07B691B7859
:103BF000002B48D07B68002B45D03B68002B42D07F
:103C00003B6A002B3FD07B699B7F042B36D801A2F7
:103C100052F823F0293C0008413C0008553C0008BC
:103C20007D3C00086D3C000897F8283001937B6AC2
:103C300000933B6A3A68B9687869FFF7D7FD1EE0E0
:103C400097F8283000937B6A3A6AB9687869FFF779
:103C5000FFFE14E097F8283001937B6A00933B6ADB
:103C60007A68B9687869FFF728FE08E097F8283085
:103C70007A6AB9687869FFF794FE00E000BF786956
:103C8000FFF744FF00E000BF1837BD4680BD00BF0E
:103C900080B487B000AF786039600023FB820023D6
:103CA000FB737B68002B02D14FF0FF3320E0002331
:103CB0003B6117E0FB8A1B0A9BB2DAB279683B6969
:103CC0000B441B785340FB73FB7B0C4A32F81330D8
:103CD0001AB2FB8A1B021BB253401BB2FB823B6928
:103CE00001333B613A693B689A42E3D3B7F9163036
:103CF00018461C37BD465DF8047B704758DF010845
:103D000080B584B000AF786039600023FB607B68C9
:103D1000002B02D03B68002B01D1002342E000239E
:103D2000BB607B684C2098470346BB607B680820DB
:103D300098470346FB60FB68002B02D0BB68002B52
:103D400011D1FB68002B04D007F10C023B68104630
:103D50009847BB68002B04D007F108023B68104667
:103D6000984700231EE0BB68104A1A60104B1B687E
:103D7000FA68B96810469847034683F00103DBB23E
:103D8000002B0BD007F10C023B681046984707F157
:103D900008023B6810469847002303E0FB68054A89
:103DA0001360FB6818461037BD4680BD00500052B6
:103DB0006C020020C03C0020F0B587B004AF3A6030
:103DC0001A460346FB710B46BB7113467B710A4BC7
:103DD000DC680A4B1868FD79BE797B793A8C796A80
:103DE0000291019200933B6832462946A047034660
:103DF00018460C37BD46F0BD6C020020C03C0020C8
:103E0000F0B589B006AF3A601A460346FB710B461F
:103E1000BB7113467B710C4B1C690C4B1868FD7908
:103E2000BE797B793A8CF96A0491B96A0391796A0F
:103E30000291019200933B6832462946A04703460F
:103E400018460C37BD46F0BD6C020020C03C002077
:103E500080B582B000AF7860054B5B69054A126897
:103E6000796810469847034618460837BD4680BD16
:103E70006C020020C03C002080B582B000AF7860AA
:103E80007B68002B01D1002307E0064B9B68064AA4
:103E90001268796810469847034618460837BD46A9
:103EA00080BD00BF6C020020C03C002080B582B005
:103EB00000AF78607B68002B01D1002307E0064B40
:103EC0005B68064A126879681046984703461846A8
:103ED0000837BD4680BD00BF6C020020C03C0020FA
:103EE00080B582B000AF78607B68002B03D07B6820
:103EF0001B6B002B01D1002382E07B6800225A60FB
:103F00007B6800225A627B6800229A627B680022EA
:103F10009A607B680022DA607B6800221A617B6805
:103F20001B78012B51D1384A38493948FCF76AFDD2
:103F3000384B1B6B2020984702467B68DA627B680F
:103F4000DB6A002B01D100235AE07B68DB6A002288
:103F50001A707B68DB6A304A5268DA607B68DB6A19
:103F60002D4AD268DA617B68DB6A2B4A92689A61D3
:103F70007B68DB6A284A12691A617B68DB6A264A19
:103F800052695A617B681B6BDB69244A13607B684A
:103F90001B6B1B68214A53607B681B6B1B691F4AA4
:103FA00013617B681B6BDB681C4A53617B681B6B6E
:103FB0005B691A4AD3607B681B6B9B69174A9360E5
:103FC0007B681B6B1B6A154A9361144B1B68002BA3
:103FD00013D0124B5B68002B0FD0104B1B69002BCA
:103FE0000BD00E4BDB68002B07D00C4B9B68002BD3
:103FF00003D00A4B9B69002B01D1002300E0012371
:1040000018460837BD4680BDB0DC0108C4DC010895
:104010003003002048000020F8000020E0160020B7
:10402000B0B592B000AF78623962002387F84730AC
:104030007B6A002B07D02A4B5B68002B03D0284BF0
:104040001B68002B01D1002345E007F128031C2247
:104050000021184616F05CFC224A23492348FCF74D
:10406000D1FC1F4B5B687A6AD26A104698470346B8
:1040700087F847301A4B1B687A6AD16A3A4610466D
:10408000984707F128043D460FCD0FC495E8070077
:1040900084E80700BA6A3B6A1A60FA6A7B6A5A6067
:1040A000B7F840301A467B6A5A62BA6B7B6A9A62EA
:1040B0003A6B7B6A9A60B7F842301A467B6ADA60DC
:1040C000BB8F1A467B6A1A6197F84730002B0CBFEA
:1040D00001230023DBB218464837BD46B0BD00BF00
:1040E000E0160020DCDC0108C4DC010830030020FD
:1040F000B0B588B000AFF860B9607A603B6000236B
:104100007B610023FB61FB68002B25D0FB68DB6A29
:10411000002B21D02C4B9B68002B1DD02A4B1B69F8
:10412000002B19D07B68002B16D03B68002B13D0D6
:10413000FB689A6ABB68B3FBF2F101FB02F29B1ABF
:10414000002B09D1FB689A6A3B68B3FBF2F101FBD3
:1041500002F29B1A002B01D0002331E0FB689B6A1E
:104160003A68B2FBF3F37B61BB68FB610023FB762B
:1041700021E0154B1B69FA68D26AF9691046984725
:1041800003461D46104B9C68FB68D86AFB689B6A17
:104190009BB27A68F969A04703462B435BB2002BB8
:1041A00001D000230CE0FB689B6AFA691344FB61B1
:1041B000FB7E0133FB76FB7E7A699A42D9D80123D4
:1041C00018462037BD46B0BDE016002090B589B036
:1041D00000AFF860B9607A603B6000237B61002328
:1041E000FB61FB68002B21D0FB68DB6A002B1DD034
:1041F000274BDB68002B19D07B68002B16D03B685F
:10420000002B13D0FB689A6ABB68B3FBF2F101FB89
:1042100002F29B1A002B09D1FB689A6A3B68B3FB38
:10422000F2F101FB02F29B1A002B01D000232AE0DD
:10423000FB689B6A3A68B2FBF3F37B61BB68FB6186
:104240000023FB761AE0124BDC68FB68D86A3B68F7
:104250009BB27A68F969A0470346002B06D03A68FA
:104260000021786816F054FB00230CE0FB689B6A81
:10427000FA691344FB61FB7E0133FB76FB7E7A69AE
:104280009A42E0D8012318462437BD4690BD00BFAE
:10429000E016002080B588B000AFF860B9607A60A1
:1042A00000237B610023FB61FB68002B1ED0244BA5
:1042B0001B69002B1AD0FB68DB6A002B16D07B68C9
:1042C000002B13D0FB689A6ABB68B3FBF2F101FBC9
:1042D00002F29B1A002B09D1FB689A6A7B68B3FB38
:1042E000F2F101FB02F29B1A002B01D0002323E024
:1042F000FB689B6A7A68B2FBF3F37B61BB68FB6186
:104300000023FB7613E00E4B1B69FA68D26AF96949
:10431000104698470346002B01D000230CE0FB68B1
:104320009B6AFA691344FB61FB7E0133FB76FB7EDB
:104330007A699A42E7D8012318462037BD4680BDE6
:10434000E016002090B593B000AFF860B9607A60D5
:104350003B60BB68BB6300237B6300237B6400235B
:104360003B630023FB6200233B643B68FB63FB6809
:10437000002B19D04E4BDB68002B15D04C4B1B6823
:10438000002B11D04A4B9B69002B0DD0FB68DB6AD8
:10439000002B09D03B68B3F5005F05D87B68002B84
:1043A00002D03B68002B01D100237DE0404B1B680D
:1043B000FA68D16A07F11002104698473B6AFB621F
:1043C0007B697B637A6BBB6B9A4201D900236BE0FC
:1043D000BB697A6B13447B633A68BB6B13447A6B9B
:1043E0009A4201D200235FE0FB6A002B01D1002337
:1043F0005AE02F4B9B69FA68D26AB96B104698470E
:104400007864BA6B7B6CD31A3B64FB6AB3F5005FCC
:1044100001D9002348E03A6CFB6B1344FA6A9A42D4
:1044200003D2FA6A3B6CD31AFB63214BDC68FB684E
:10443000D86AFB6A9BB21F4A796CA0470346002BDF
:1044400001D0002330E03B6C1A4A1344FA6B194642
:10445000786816F04FFAFA6A0021164816F058FAF2
:104460003A68FB6BD31A3B603B68002B01D10123F8
:104470001AE000233B640E4B9B69FA68D06A796CA2
:10448000FA6B0A441146984738633A6B7B6C9A4240
:1044900001D1FB6B3B647A68FB6B13447B603B6828
:1044A000FB633B6B7B64B6E718464C37BD4690BD5B
:1044B000E016002000900724B0B59CB000AFF86271
:1044C000B9627A623B62BB6A3B660023FB650023EC
:1044D000FB660023BB6500237B650023BB663B6A4C
:1044E0007B66FB6A002B1DD0674B1B68002B19D025
:1044F000654B9B69002B15D0634BDB68002B11D0FB
:10450000614B9B68002B0DD05F4B1B69002B09D0C2
:10451000FB6ADB6A002B05D07B6A002B02D03B6A6A
:10452000002B01D10023AAE007F134031C22002153
:10453000184616F0EDF9544B1B68FA6AD16A3A46F0
:104540001046984707F134043D460FCD0FC495E857
:10455000070084E807007B6C7B65BB6BFB65FA6D2D
:104560003B6E9A4201D9002389E0FB6BFA6D13443C
:10457000FB653A6A3B6E1344FA6D9A4201D20023FE
:104580007DE07B6D002B01D1002378E03E4B9B69E1
:10459000FA6AD26A396E10469847F8663A6EFB6E30
:1045A000D31ABB667B6DB3F5005F01D9002366E0CB
:1045B000354BDC68FB6AD86A7B6D9BB2334AF96E77
:1045C000A0470346002B01D0002358E02E4B1B6967
:1045D000FA6AD26AF96E104698470346002B01D05A
:1045E00000234CE0BA6E7B6E13447A6D9A4203D27C
:1045F0007A6DBB6ED31A7B66BB6E244A13447A6E07
:10460000796A184616F076F91F4B9C68FB6AD86ADF
:104610007B6D9BB21D4AF96EA047034687F8533065
:104620007A6D0021194816F073F93A6A7B6ED31A35
:104630003B6297F85330002B04D13B6A002B03D127
:1046400001231CE000231AE00023BB660E4B9B698C
:10465000FA6AD06AF96E7A6E0A4411469847B865CC
:10466000BA6DFB6E9A4201D17B6EBB667A6A7B6E35
:1046700013447B623B6A7B66BB6DFB6698E718461A
:104680007037BD46B0BD00BFE016002000B0072463
:1046900080B58CB000AFF860B9607A60BB68FB622F
:1046A000FB68002B0ED0184B1B68002B0AD0164B52
:1046B0001B69002B06D0FB68DB6A002B02D07B68ED
:1046C000002B01D100231AE00F4B1B68FA68D16A56
:1046D00007F11002104698477B69FA6A9A4201D2A4
:1046E00000230CE0084B1B69FA68D26AF96A10468D
:1046F00098470346002B01D0002300E00123184611
:104700003037BD4680BD00BFE016002080B582B0C6
:1047100000AF7860044B1B6B7868984703461846D7
:104720000837BD4680BD00BF4800002080B582B07C
:1047300000AF78607B68002B0DD07B681B68002B76
:1047400009D0074B5B6B7A681268104698477B6804
:1047500000221A6000E000BF0837BD4680BD00BFE0
:104760004800002080B584B000AF78600023FB6073
:1047700098220021554816F0CBF8544B00221A74A9
:104780007B68002B01D100239BE0504B00229A60F4
:104790004F4B1B684F4950489847F860FB68002B07
:1047A00004D14A4B0222DA7000238AE0474AFB68B0
:1047B000D3607B681B78012B04D9444B0522DA7047
:1047C00000237EE0454B1B6878689847034683F0DA
:1047D0000103DBB2002B04D03C4B0422DA7000232F
:1047E0006FE03A4A7B689360384B05225A70374B2A
:1047F0000022DA70394B5B6839497868984703467C
:1048000083F00103DBB2002B0FD0304B0622DA70AD
:104810002E4B5B78002B06D02C4B5B78013BDAB239
:104820002A4B5A70E3E700234BE07B685B68274A1A
:10483000C2F83B307B685B6803F58013234AC2F8FB
:104840003F30224B05221A7000BF00F029FA0346C0
:1048500083F00103DBB2002B2ED000BF1B4B1B7873
:10486000002B2CD000F0A6F8034683F00103DBB246
:10487000002B12D0154B1B78013BDAB2134B1A7088
:104880007B685B6803F58013104AC2F83F300F4B1A
:104890001B78002BE2D1002313E002F07DF80346E1
:1048A000002B0CD0094B9B780133DAB2074B9A707E
:1048B000064B01221A74C8E7044B01221A74034BF9
:1048C0001B7C18461037BD4680BD00BFFC1600207B
:1048D000F80000202D4700080D47000810010020B7
:1048E0001017002090B583B000AF0023FB804FF479
:1048F00080520021174816F00BF8164A164B104646
:1049000018337F22194615F0F5FF40F6FE71114865
:10491000FFF7BEF903469BB2FB80FA880D4BA3F864
:10492000FE2F0E4B5C690C4B98680B4BD3F83F1075
:104930004FF48053074AA047034683F00103DBB2DC
:10494000002B01D0002300E0012318460C37BD46A0
:1049500090BD00BF94170020FC160020100100201D
:1049600080B584B000AF78600023FB607B68002BCB
:104970000AD00F4B1B7C83F00103DBB2002B03D169
:104980000B4B9B68002B01D104230DE03422002146
:10499000786815F0BDFF064B9B68FB603422F96810
:1049A000786815F0A7FF002318461037BD4680BD74
:1049B000FC16002090B589B000AF0023FB610023F6
:1049C000FB7200237B600023BB61314BD3F83F3087
:1049D0007B614FF48053FB61FF23FB724FF40013A4
:1049E000BB614FF400737B6000233B6146E0BB6911
:1049F000002B05D0BA69FB699A4201D2BB69FB6101
:104A0000244BDB69224A9068FA6979699847034622
:104A100083F00103DBB2002B0DD11E4B9C691C4BB4
:104A20009868FB691C4A7969A047034683F0010333
:104A3000DBB2002B00D0FEE70023FB600AE0164A41
:104A40003B6913441B78FA7A9A4200D0FEE7FB6870
:104A50000133FB60FA68FB699A42F0D37A69FB691B
:104A600013447B61BA69FB69D31ABB61BB69002B34
:104A700001D1012307E03B6901333B613A697B685F
:104A80009A42B4D3002318462437BD4690BD00BFD8
:104A9000FC160020100100209417002090B593B060
:104AA00000AF786000237B6400233B640023FB633A
:104AB0000023BB630023FB620023BB620023FB8453
:104AC00000233B620023FB830023BB617B68002B38
:104AD00001D10023D3E07B685B69BB637B68DB6843
:104AE000FB627B681B69FA6A1344BB6200237B6329
:104AF000BB6B002B29D0BA6BFB6A9A4225D3BA6BE9
:104B0000BB6A9A4221D8604B9C69604B986807F158
:104B100008021023B96BA047034683F00103DBB200
:104B2000002B12D1BB685A4A934203D17B69594A80
:104B3000934201D00023A2E07B6B01337B633B698E
:104B4000002B04D03B69BB63D2E700BF00E000BF8D
:104B50007B681B6A002B00F091807B681B687B647C
:104B600000237B8679E0484B9C69484B98687B68BA
:104B70009A687B685B68B2FBF3F3474A796CA0479D
:104B8000034683F00103DBB2002B01D0002376E063
:104B9000414BBB6100233B8650E03B8E9B01BA69D1
:104BA00013441B78AA2B46D13B8E9B01BA69134450
:104BB00093F83F30BB2B3ED13B8E9B01BA69134427
:104BC00001333B624023FB83FB8B013BFB83FB8B6D
:104BD000013BFB83FB8B023BFB83FB8B1946386A53
:104BE000FFF756F80346FB843B8E9B01BA691344DA
:104BF000B3F83D309BB2FA8C9A4201D000233EE0DC
:104C00003B8E9B01BA69134402330E222349184696
:104C100015F060FE0346002B0DD03B6C01333B6466
:104C20003B8E9B01BA691344B3F82F309BB21A46EE
:104C3000FB6B1344FB633B8E01333B863B8E3F2B68
:104C4000ABD97B689A687B685B68B2FBF3F37A6CDC
:104C500013447B647B8E01337B867A8E7B685B6832
:104C60009A4280D37B681B6A3A6C9A4204D17B6873
:104C7000DB69FA6B9A4201D0002300E00123184659
:104C80004C37BD4690BD00BF10010020FC1600202F
:104C9000EF1001EFFE0110FE94170020F4DC010874
:104CA000B0B5A6B000AF6B461D46012387F897301C
:104CB0000023C7F890300023A7F88E3000237B80B4
:104CC0001723C7F8883018230733DB08DB00ADEB68
:104CD000030D6B460033C7F8843018220021D7F843
:104CE000840015F015FE3B1D7F220021184615F0AB
:104CF0000FFE18224149D7F8840015F0FBFD404B08
:104D0000C7F890303F4B9C693F4B98683E4BD3F8B7
:104D10003F104FF480533D4AA047034683F0010300
:104D2000DBB2002B01D0002363E0384A3B1D114663
:104D30007F22184615F0DEFD3B1DD7F8841018467B
:104D4000FBF7D4FA0346002B0DD1D7F83B30002BEC
:104D500009D0D7F85F30002B05D0D7F83B20D7F823
:104D60005F309A4201D1002343E0284BB3F8FE3F65
:104D70007B8040F6FE712548FEF78AFF0346A7F8C0
:104D80008E307B88B7F88E209A4201D0002330E025
:104D90004FF4805200211D4815F0BAFD3B1D3733FA
:104DA0001846FFF77BFE034683F00103DBB2002BBE
:104DB00002D0002387F897303B1D5B331846FFF77E
:104DC0006DFE034683F00103DBB2002B02D000230B
:104DD00087F8973097F89730002B09D0D7F89030A4
:104DE00018463B1D7F22194615F084FD012300E083
:104DF0000023AD4618469837BD46B0BD04DD010816
:104E00001417002010010020FC1600209417002029
:104E100090B585B000AF786039600023FB607B6897
:104E2000002B02D03B68002B01D1002327E04FF478
:104E300080520021144815F06BFD7B68FB60002355
:104E4000BB6017E0114B5C69114B98684FF48053BD
:104E50000D4AF968A047034683F00103DBB2002B3B
:104E600001D000230BE0FB6803F58053FB60BB68B7
:104E70000133BB60BA683B689A42E3D3012318460A
:104E80001437BD4690BD00BF9417002010010020CC
:104E9000FC1600202DE9F047A8B00CAFF8600B46D7
:104EA0007A60FB7200237B6600233B660023FB6570
:104EB0000023FB6607F1140345220021184615F074
:104EC00027FD794B1B7C83F00103DBB2002B09D15A
:104ED0007B68002B06D07B681B78002B02D0FB7A06
:104EE000012B08D9FB68184607F11403452219461F
:104EF00015F000FDD2E0FB7A19466C4801F06AFF1C
:104F000078667B6E002B07D07B6E1B6A002B03D06C
:104F10007B6EDB69002B08D1FB68184607F1140390
:104F20004522194615F0E6FCB8E07B6E1B68FB666F
:104F3000002387F86B30A2E05D4B9C695A4B986860
:104F40007B6E9A687B6E5B68B2FBF3F3594AF96E2D
:104F5000A047034683F00103DBB2002B08D0FB68B7
:104F6000184607F114034522194615F0C3FC95E0D5
:104F7000504B3B660023A7F8683067E0B7F868300D
:104F80009B013A6E1344FB65FB6D1B78AA2B58D12D
:104F9000FB6D93F83F30BB2B53D1FB6D9C1C7868A5
:104FA000FBF7AEF903461A467968204615F092FCE5
:104FB0000346002B45D1FB6D1A6892465A6891460C
:104FC0009A689046DA68964603F110046E4604F13A
:104FD000300C35462346186859689A68DB680FC557
:104FE000103410366445F4D1504649464246734663
:104FF00001F096FE0346002B23D0FB6E7B61B7F8D1
:105000006830DBB23B76FB6D07F1190003F1400419
:1050100002461946D1F800C04E688D68C968C2F8CA
:1050200000C056609560D16010331030A342EFD1BC
:10503000FB68184607F114034522194615F05AFC7F
:105040002CE0B7F868300133A7F86830B7F868206B
:105050007B6E99687B6E5B68B1FBF3F39B099A42A8
:105060008CD37B6E9A687B6E5B68B2FBF3F3FA6E4F
:105070001344FB6697F86B30013387F86B3097F871
:105080006B207B6E5B689A42FFF456AFFB68184654
:1050900007F114034522194615F02CFCF868703707
:1050A000BD46BDE8F08700BFFC16002014170020A5
:1050B000100100209417002082B0F0B587B000AF37
:1050C000F8607A607B630B46FB7200237B61FB68B0
:1050D000002B0AD07B68002B07D097F83430AA2B1E
:1050E00003D197F87330BB2B01D0012339E0204B5B
:1050F0009C69204B98684FF480531F4AF968A04779
:10510000034683F00103DBB2002B01D0082328E023
:10511000194B7B61FB7A9B017A69134407F13404D4
:105120009C4604F1400E654626460FCE2860696015
:10513000AA60EB6010340CF1100C7445F3D10C4BE9
:105140005C690C4B98684FF480537A69F968A04702
:10515000034683F00103DBB2002B01D0092300E0FA
:10516000002318461C37BD46BDE8F04002B070472A
:1051700010010020FC1600209427002084B090B578
:1051800091B000AF044607F1540080E80E002346BA
:10519000FB710023FB6300237B8700237B630023D9
:1051A0003B630023FB6200237B8500233B850023B8
:1051B0007B6207F10C0318220021184615F0A8FBAA
:1051C000D7F87F30002B00F0C780D7F89430002B41
:1051D00000F0C280B7F883309BB2FB63D7F87F3012
:1051E0007B63A9E0604B9C69604B9868FB6B18334C
:1051F0005F4A796BA047034683F00103DBB2002BC3
:1052000001D01C23A9E05A4B3B633B6B1B68FB603E
:105210003B6B04333B63FB68564A934201D01C232B
:105220009BE03B6B1B889BB23B823B6B02333B6337
:105230003B8A002B01D11C238FE03B6B1B889BB268
:105240007B823B6B02333B637B8A002B01D11C23A7
:1052500083E03B6B1B687B613B6B04333B633B6BC5
:105260001B889BB23B833B6B02333B633B6B1B88CE
:105270009BB27B833B6B02333B633B6B7B623B6B41
:10528000FB627B8A7B857B8D1946F86AFEF700FD01
:1052900003463B857B8A1A463B6B13443B633B6B5F
:1052A0001B889BB2BB833B6B02333B63BB8B3A8D4A
:1052B0009A4201D01C2350E03B6B1B889BB2FB83BE
:1052C0003B6B02333B633B6B1B683B623B6A2A4A86
:1052D000934201D01C2340E07B8A1A467B8BD31A71
:1052E0001A46796AD7F8940015F004FB7B8A1A46AF
:1052F000FB6B9B1AFB637A8A7B8BD31A9AB27B8FE8
:1053000013447B87FB6B002B01DA1C2325E07B69B0
:10531000002B0CD07B8A1A467B8BD31A1A46D7F8FF
:1053200094301344C7F894307B697B6304E0FB6BD3
:10533000002B06D01C2310E0FB6B002B7FF452AF38
:1053400000E000BFD7F89830002B03D0D7F8983092
:105350007A8F1A80002300E01C2318464437BD468C
:10536000BDE8904004B0704710010020FC160020FA
:1053700094170020EF1001EFFE0110FE90B58FB0E2
:1053800000AFB9607A601A460346FB731346BB81CF
:1053900000237B6200233B627C4B7B630023FB6129
:1053A0000023FB8200233B630023BB610023FB62DD
:1053B000002387F82B30764B1B7C83F00103DBB294
:1053C000002B0BD1FB7B012B08D8BB68002B05D031
:1053D0007B68002B02D0BB89002B01D101237CE12B
:1053E000FB7B19466B4801F0F5FC78627B6A002B69
:1053F0000CD07B6ADB68BA689A4207D37B6ADA68AA
:105400007B6A1B691344BA689A4201D9012364E19B
:10541000BB683B63182200215C4815F079FABB8910
:1054200003F003039BB2002B08D0BB89DBB203F06F
:105430000303DBB2C3F1040387F82B30564B9C699E
:10544000534B986818237A6B396BA047034683F057
:105450000103DBB2002B01D008233EE17B6B3B62F2
:105460003B6A1B684D4A93420CD13B6A9B889BB2B6
:10547000002B07D03B6A9B889BB21A467B6A1B694C
:105480009A4201D9112328E13B6A9B889BB21946B5
:10549000BA8997F82B301344994201D01E231CE19E
:1054A0003B6A9B889BB21833BB61384B7B631822E5
:1054B0000021786B15F02CFA00233B627B6B3B627A
:1054C000354B9C69324B9868BB697A6B396BA04746
:1054D000034683F00103DBB2002B01D00823FCE07C
:1054E0007B6B1A683B6A1A607B6B04337B633B6A95
:1054F0001B682A4A934201D01123EEE07B6B1B68A4
:105500009AB23B6A9A807B6B02337B633B6A9B88CF
:105510009BB2002B07D03B6A9B889BB21A467B6AE2
:105520001B699A4201D91123D7E07B6B1B689AB2A1
:105530003B6ADA807B6B02337B633B6ADB889AB21F
:105540003B6A9B889BB29A4201D91123C5E07B6BD1
:105550001A683B6A9A607B6B04337B637B6B1B78B6
:105560009AB23B6A9A817B6B02337B637B6B1B78BD
:105570009AB23B6ADA817B6B02337B633B6ADB89DD
:105580009BB2032B0CD91123A7E000BF9417002076
:10559000FC1600201417002010010020EF1001EF6E
:1055A0007B6BFB613B6ADB889BB21A463B6ADB89FB
:1055B0009BB2D31A1A467968786B15F09BF93B6A4F
:1055C000DB889BB21A463B6ADB899BB2D31A1A4628
:1055D0007B6B13447B633B6ADB899BB2002B07D058
:1055E0003B6ADB899BB21A460021786B15F090F973
:1055F0003B6ADB899BB21A467B6B13447B633B6A35
:10560000DB889BB21946F869FEF742FB03469BB262
:10561000FB823B6ADB889BB21A463B6ADB899BB202
:10562000D31A1A46FB6A1344FB623B6A9B68002B41
:1056300005D1BB89FA6A9A4212D01E234DE03B6A1B
:105640009A687B6ADB689A4208D33B6A9A687B6AED
:10565000D9687B6A1B690B449A4201D911233CE04B
:10566000FA8A7B6B1A803B6ADB889BB21A463B6ADC
:10567000DB899BB2D31A1A467B6813447B607B6B31
:1056800002337B637B6B02337B637B6B1B68154A46
:10569000934201D0112320E03B6A9B68002B18D174
:1056A000BB89FA6A9A4214D10F4B5C690F4B986818
:1056B0003B6ADB889BB218330D4A396BA04703461F
:1056C00083F00103DBB2002B01D0092305E00023A6
:1056D00003E03B6A9B683B63F0E618463C37BD46F7
:1056E00090BD00BFFE0110FE10010020FC1600203E
:1056F0009417002090B58DB000AFF860B9607A6063
:105700003B607B68002B0CD03B68002B09D0FB680A
:10571000002B06D0FA687B689A4202D03B6C002BC3
:1057200001D1012307E107F12003102200211846CF
:1057300015F0EEF807F1100310220021184615F0BD
:10574000E7F87F4B9C697F4B986807F12002102394
:10575000F968A047034683F00103DBB2002B07D1B1
:105760003B6A794A934203D1FB6A784A934201D05B
:105770000123E0E03B685A687B681344FA689A4268
:105780003ED33B685A687B681344FA689A4203D94F
:105790003B68FA689A6020E03B685A687B6A1A4462
:1057A0003B685A60BA6A3B689A6007F1200310228E
:1057B0000021184615F0ACF8614B5C69614B9868A4
:1057C00007F120021023F968A047034683F0010384
:1057D000DBB2002B01D00123ADE0594B5C69594B82
:1057E000986810233A687968A047034683F001035C
:1057F000DBB2002B01D001239DE03B6C7A685A613B
:10580000BB68002B00F086804D4B9C694D4B98681F
:1058100007F110021023B968A047034683F0010383
:10582000DBB2002B07D13B69474A934203D1FB69A6
:10583000464A934201D001237DE0BA687B689A42D0
:1058400006D03B685A687B681344BA689A4201D212
:10585000012370E0BA687B689A4201D202236AE0B1
:105860003B68BA689A603B685A687B681344BA68B8
:105870009A4225D1BA693B689A603B685A687B694D
:105880001A443B685A6007F11003102200211846A1
:1058900015F03EF82A4B5C692A4B986807F1100214
:1058A0001023B968A047034683F00103DBB2002B45
:1058B00001D001233FE0BB69002B01D10023BB6075
:1058C0007A6AFB6813447A689A4205D07B68BB62A7
:1058D0003B68BA689A600CE03B689B68BB627A6A76
:1058E0003B685B6813447B6210220021386815F026
:1058F0000FF8134B5C69134B986807F120021023D3
:10590000F968A047034683F00103DBB2002B01D006
:10591000012310E00A4B5C690A4B986810233A682F
:105920007968A047034683F00103DBB2002B01D066
:10593000012300E0002318463437BD4690BD00BF68
:1059400010010020FC160020EF1001EFFE0110FEF8
:1059500090B58FB002AFF860B9607A600023FB6247
:105960000023BB62002387F827307B68002B0FD011
:10597000BB68002B0CD07B68DB68FA689A4207D3BF
:105980007B68DA687B681B691344FA689A4201D91C
:10599000012359E007F1140310220021184614F0E6
:1059A000B7FFBB681B682A4A93420AD1BB68DB6811
:1059B000284A934205D1BB685A687B689B699A4222
:1059C00001D9182340E07B685B69FB62224B9C692C
:1059D000224B986807F114021023F96AA047034686
:1059E00083F00103DBB2002B01D008232CE07B699C
:1059F000174A934203D13B6A164A934201D01823B7
:105A000022E0FB69BB627B680093BB68FA68B96AF5
:105A1000F86AFFF76FFE034687F8273097F82730BC
:105A2000012B01D119230FE097F82730002B01D16A
:105A3000002309E0BB6AFB627B689A69BB685B680C
:105A40001A447B689A61C1E718463437BD4690BD59
:105A5000EF1001EFFE0110FE10010020FC160020E7
:105A600090B589B000AFF860B9607A600023FB831D
:105A70001823BB830023BB6100237B6100233B61B0
:105A8000FB68002B12D07B68002B0FD0BB68002B6B
:105A90000CD07B68DB68FA689A4207D37B68DA68C7
:105AA0007B681B691344FA689A4201D900238AE093
:105AB000BB681B68464A934201D0002383E0BB6861
:105AC000BB61BB693B61BB680433BB60BB68002240
:105AD0001A80BB680233BB60BB681B88FB83BA8B30
